:020000040800F2
:1000000060070020910100084318000867170008E6
:1000100041180008E50400089D1C000800000000CD
:100020000000000000000000000000004718000869
:10003000E7040008000000004518000849180008FF
:10004000AB010008AB010008AB010008AB010008E0
:10005000AB010008AB010008AB010008AB010008D0
:10006000AB010008AB010008AB010008AB010008C0
:10007000AB010008AB010008AB010008AB010008B0
:10008000AB010008AB010008AB010008AB010008A0
:10009000AB010008AB010008AB010008AB01000890
:1000A000AB010008AB010008AB010008AB01000880
:1000B000AB010008E1180008AB010008AB01000823
:1000C000AB010008AB010008AB010008AB01000860
:1000D000AB010008911C0008AB010008AB0100084F
:1000E000AB010008AB010008AB01000800F002F80A
:1000F00000F03EF80AA090E8000C82448344AAF184
:100100000107DA4501D100F033F8AFF2090EBAE881
:100110000F0013F0010F18BFFB1A43F0010318473B
:10012000902C0000B02C0000103A24BF78C878C191
:10013000FAD8520724BF30C830C144BF04680C60ED
:10014000704700000023002400250026103A28BF35
:1001500078C1FBD8520728BF30C148BF0B60704739
:100160001FB59DE8030000F0CFF81FBD10B510BD0E
:1001700000F036F91146FFF7F3FF02F033F800F014
:1001800054F903B4FFF7F2FF03BC00F085F9000057
:100190000948804709480047FEE7FEE7FEE7FEE71B
:1001A000FEE7FEE7FEE7FEE7FEE7FEE70448054957
:1001B000054A064B70470000DD180008ED000008F6
:1001C0006001002060070020600300206003002021
:1001D00070B5064600F07CF8056806F10B0020F0CB
:1001E0000704B4429CBF002070BD2B466A68BAB1B8
:1001F0001068A04210D304F1080188423CBF506847
:10020000586007D35168101941601168091B0160DB
:1002100058601460101D70BD13465268002AE7D163
:100220002146284600F05CF80028DED170BD70B58C
:100230000446051F00F04CF80068002C14BF446809
:1002400070BD002C18BFAC423CBF20466468F8D398
:1002500001680A18AA4218BF456003D12A680546FA
:100260001144016028684119A1421CBF6C6070BD37
:100270006168696021680844286070BD4FF0000221
:1002800000B5134694469646203922BFA0E80C508C
:10029000A0E80C50B1F12001BFF4F7AF090728BF67
:1002A000A0E80C5048BF0CC05DF804EB890028BFE3
:1002B00040F8042B08BF704748BF20F8022B11F00C
:1002C000804F18BF00F8012B704770477047704788
:1002D000004870470401002070477047704770471E
:1002E00038B504460A4600206946AFF3008000286E
:1002F00008BF38BD02460099204600F04FF80120A3
:1003000038BD012000F064B8F8B5AFF300800546B1
:1003100000200C46102000BF0646A819A0420DD9A7
:10032000324669460020AFF30080070008BF00F0A6
:100330004FF80098A04218BF0546C419FFF7C8FF40
:1003400005600746F01D20F007004619284600F01A
:100350000AF8B44208BFF8BDA21B31463868BDE8B0
:10036000F84000F01BB800210160C0E9011070479F
:100370001020704710B500F00DF8006810BD10B5E2
:10038000044600F007F8046010BD00000048704704
:10039000FC00002000487047FC0000200346406835
:1003A0008C46002818BF88423CBF03464068F8D3FB
:1003B00018681844884207D00CF1030020F00700A9
:1003C000001D411A521A0146081D0A60FFF72FBF8F
:1003D00010B500F039F8BDE8104000F02FB87047B4
:1003E0007546FFF7D3FFAE4605006946534620F039
:1003F0000700854618B020B5FFF7D8FEBDE82040BD
:100400004FF000064FF000074FF000084FF0000BD0
:1004100021F00701AC46ACE8C009ACE8C009ACE883
:10042000C009ACE8C0098D46704710B50446AFF36B
:1004300000802046BDE81040FFF7A3BE002801D091
:1004400000F02AB87047000010B5012805D000213F
:1004500003A000F027F8012010BD09A1F8E7000073
:1004600053494752544D454D3A204F7574206F669D
:100470002068656170206D656D6F72790000000005
:100480003A2048656170206D656D6F727920636FE9
:10049000727275707465640001491820ABBEFEE786
:1004A0002600020070B505460C460A2000E06D1CCF
:1004B00000F011F835B128780028F8D102E0641C6A
:1004C00000F009F814B120780028F8D1BDE8704098
:1004D0000A20AFF3008008B569468DF800000320BC
:1004E000ABBE08BDFEE7704710B590F821100022A2
:1004F000022905D00421816380F82020012010BD4D
:1005000001680B6823F00E030B6001680B6823F091
:1005100001030B6090F84030C46B012101FA03F332
:10052000636080F8211080F82020104610BD000084
:1005300010B590F821100024022903D00421816312
:1005400001243DE001680A6822F00E020A60016899
:100550000A6822F001020A601A4A0168914201D138
:10056000012121E0174A1432914201D110211BE0F0
:10057000144A2832914201D1891515E0114A3C32C2
:10058000914201D189140FE00E4A5032914202D1BA
:100590004FF4803108E00B4A6432914202D14FF4AB
:1005A000801101E04FF08071064A083A5160012144
:1005B00080F82110002180F82010416B01B188479C
:1005C000204610BD0800024070B5044600F0FEF859
:1005D0000546601C02D004480078044400F0F6F898
:1005E000401BA042FAD370BD140000202DE9F84F43
:1005F000DFF8B8910024A9F1040B23460F2709F175
:10060000040AABF1040EC9E00125A5402A40AA4224
:100610007DD1674ED1F804C0ACEB0608B44532D0AA
:1006200014DCBCF1030F3AD009DCBCF1000F2AD076
:10063000BCF1010F1CD0BCF1020F31D11DE0BCF1A7
:10064000110F17D0BCF1120F2AD119E0B8F5881F8D
:1006500019D006DCB8F5803F15D0B8F5801F1FD142
:1006600011E0B8F5001F0ED0B8F5041F18D10AE04C
:10067000CB6815E0CB681B1D12E0CB6808330FE098
:10068000CB680C330CE08B682BB1012B4FF00803C7
:1006900003D0456104E0042302E0056100E000238B
:1006A000FF2A01D8064601E000F104064FEA84055E
:1006B00001D9A5F12005D6F8008007FA05FC28EA43
:1006C0000C0803FA05F548EA0508C6F800804D68ED
:1006D000ED0062D5374DAE6946F00106AE61AD69F9
:1006E00024F0030605F001050095334D06EB050CDB
:1006F000DCF80850A607360F07FA06F825EA0805C1
:10070000DFF8B880404503D14FF0000817E044E01F
:10071000DFF8AC80404502D14FF001080FE0DFF870
:10072000A480404502D14FF0020808E0DFF898802D
:10073000404502D14FF0030801E04FF0040808FAE9
:1007400006F848EA0508CCF808804D68D9F800603A
:10075000ED024D4601D5164300E096432E604D68EC
:10076000DAF80060AD02554601D5164300E0964325
:100770002E604D68DBF80060AD035D4601D5164381
:1007800000E096432E604D68DEF80060ED0375468C
:1007900001D5164300E096432E60641C0D682A467E
:1007A000E5407FF431AFBDE8F88F00000804014058
:1007B000000011100010024000000140000801403C
:1007C000000C014000100140001401400148806805
:1007D000704700001400002002488168027811442C
:1007E0008160704714000020074810B5016841F08F
:1007F00010010160032000F06DF80F2000F006F8F2
:1008000000F024F8002010BD0020024070B50D4D0E
:1008100004464FF47A712878B1FBF0F00A49096870
:10082000B1FBF0F000F0D4FA48B9102C07D2002246
:100830002146501E00F02EF800206C6070BD012093
:1008400070BD00001400002020000020094808B5F9
:10085000816941F001018161816901F0010100912B
:10086000C16941F08051C161C06900F080500090C1
:1008700008BD000000100240002809DB00F01F0244
:10088000012191404009800000F1E020C0F80011F2
:1008900070470000F0B40E4B1B680C46C3F30223F4
:1008A000C3F10705042D00D90425191D072901D21C
:1008B000002300E0DB1E012606FA05F1491E214057
:1008C00099409E40761E16403143F0BC01F0E7B9D6
:1008D0000CED00E0064900F0070208684FF6FF0340
:1008E000184040EA0220034A1043086070470000A5
:1008F0000CED00E00000FA052DE9F0470F46050079
:1009000061D0434E306800F00700B84209D2306829
:1009100020F0070038433060306800F00700B8422C
:1009200051D128683B4C810712D5400703D5606838
:1009300040F4E06060602878000703D5606840F408
:10094000605060606068A96820F0F0000843606053
:100950002878C00728D06868012810D021680228AC
:1009600010D0890700292EDA616821F003010143C4
:100970006160FFF72BFF804641F288390DE0216866
:100980008903EFE78901EDE7FFF720FFA0EB0801FE
:10099000494502D90320BDE8F0876068696800F026
:1009A0000C00B0EB810FEFD1306800F00700B842C7
:1009B0000BD9306820F0070038433060306800F011
:1009C0000700B84201D00120E5E72878400705D5A7
:1009D0006068E96820F4E0600843606028780007F8
:1009E00006D56068296920F4605040EAC100606063
:1009F00000F038F86168084AC1F30311515CC8403F
:100A00000649086006480068FFF700FF0020C2E7BB
:100A10000020024000100240522D0008200000205B
:100A2000180000200448054900684968044AC1F3D9
:100A30000221515CC8407047200000200010024095
:100A4000622D00080448054900684968044AC1F35A
:100A5000C221515CC84070472000002000100240B5
:100A6000622D00080E4A51680E4801F00C03042B59
:100A700011D0082B0FD10C48C1F38343C903C05CCC
:100A80000AD55168084AC1F34041921E515C054A9B
:100A90005043B0FBF1F070470449484370470000F1
:100AA0000010024000127A00422D000800093D00AB
:100AB0002DE9F84F040070D02078C04DC00749D010
:100AC0006868C0F38100012807D06868C0F381001E
:100AD000022809D16868C00306D52868800339D583
:100AE00060680028E7D035E06068B0F5803F0BD043
:100AF00010B1B0F5A02F11D0286820F48030286004
:100B0000286820F4802002E0286840F480302860C3
:100B1000606890B1FFF75AFE06460AE0286840F484
:100B200080202860F0E700BFFFF750FE801B64289C
:100B300073D828688003F7D50CE0FFF747FE064618
:100B400005E000BFFFF742FE801B6428F0D828684C
:100B50008003F7D420789A4E80074FF001094FF0B8
:100B6000000839D5686810F00C0F07D06868C0F32A
:100B70008100022809D16868C00306D4286880076C
:100B800014D52069012808D110E02069B0B1C6F859
:100B90000090FFF71BFE074605E00AE1FFF716FE8F
:100BA000C01B0228C4D828688007F7D52868616967
:100BB00020F0F80040EAC10028600DE0C6F800808F
:100BC000FFF704FE074604E0FFF700FEC01B022803
:100BD00023D828688007F7D4207800072CD57948D7
:100BE000A169D9B1C0F80090FFF7F0FD074604E015
:100BF000FFF7ECFDC01B02280FD8686A8007F7D505
:100C000071484FF4FA510068B0FBF1F0009000BF5A
:100C10000098411E0091FAD20EE080E0C0F80080FA
:100C2000FFF7D4FD074604E0FFF7D0FDC01B022804
:100C300075D8686A8007F7D42078400760D5E869DE
:100C40000027C00008D4E86940F08050E861E869F6
:100C5000012700F0805000905C480168C90513D45A
:100C60000168834641F480710160FFF7AFFD824661
:100C700006E000BFFFF7AAFDA0EB0A0064284ED8EB
:100C8000DBF80000C005F5D5E06801280AD008B1FE
:100C9000052813D0286A20F001002862286A20F075
:100CA000040002E0286A40F001002862E06841F296
:100CB000883B98B1FFF78AFD82460BE0286A40F036
:100CC00004002862EEE700BFFFF780FDA0EB0A01F9
:100CD00059455AD8286A8007F6D50CE0FFF776FD0B
:100CE000824605E0FFF772FDA0EB0A0159454CD89A
:100CF000286A8007F6D41FB1E86920F08050E861C7
:100D0000E06988B36968C1F38101022944D00228EF
:100D1000C6F8608004D0FFF759FD044638E034E09F
:100D2000FFF754FD074604E0FFF750FDC01B022803
:100D30002BD828688001F7D4206AB0F5803F05D110
:100D40006868A16820F4003008436860D4E90801AD
:100D50000843696821F4741108436860C6F860901C
:100D6000FFF734FD044606E025E000BFFFF72EFD47
:100D7000001B022809D828688001F7D51BE000BFB6
:100D8000FFF724FD001B022802D90320BDE8F88FDD
:100D900028688001F4D40EE00128F7D06868226A40
:100DA00000F48031914204D1616A00F470108842ED
:100DB00001D00120EAE70020E8E70000001002402F
:100DC00000004242800442422000002000700040A7
:100DD00010B5401EB0F1807F01D3012010BD4FF04F
:100DE000E02460610F21601700F059FF0020A0612E
:100DF00007202061002010BD7047704770B590F843
:100E00003C20012A26D0012480F83C40022280F8B0
:100E10003D2003685A689D6822F070060A683243D4
:100E20005A600D4B02689A4208D0B2F1804F05D04B
:100E30000A4B9A4202D00A4B9A4204D1496825F0E3
:100E400080031943916080F83D40002180F83C10F8
:100E5000084670BD022070BD002C01400004004017
:100E6000000800402DE9F0410D46040003D094F83D
:100E70003D0018B108E00120BDE8F081002084F8B1
:100E80003C00204600F040F8022084F83D00206835
:100E9000816844F2070291438160211D206800F0BF
:100EA00025FD226890689169166A2B68AF69034333
:100EB00040F20330814341EA0721A868EF69084303
:100EC0004FF6FC418843E96840EA0720014328695E
:100ED0002F6A000140EA0730084369686D6926F00F
:100EE000220646EA0515294393602268906154F86A
:100EF000460B0162012004F81F09E0752076E076B8
:100F00002077A0750020B7E700B585B000210091DB
:100F10000191029103910068114988421ED1114844
:100F2000C16941F00201C161C16901F0020104918E
:100F3000816941F0040181618069694600F0040023
:100F40000490C02000900848FFF750FB00220221C7
:100F50001D20FFF79FFC1D20FFF78EFC05B000BD94
:100F600000040040001002400008014070B590F8F5
:100F70003E60044690F83F5090F8423090F843208D
:100F8000022021B1042914D0012E25D11EE0012E0A
:100F900022D1012B20D184F83E0084F842000122A6
:100FA0000021206800F0D8FC2068C16841F00201EF
:100FB0002FE0012D10D1012A0ED184F83F0084F8D2
:100FC00043000421206800F0C7FC1EE0012D03D17E
:100FD000012B01D1012A01D0012070BD84F83E000F
:100FE00084F83F0084F8420084F843000122002185
:100FF000206800F0B1FC01220421206800F0ACFC64
:101000002068C16841F00201C1602068C16841F0F8
:101010000401C1602068016841F001010160002005
:1010200070BD000003480068406A0349486048807A
:10103000704700006C0000200000002070B50446DE
:10104000006801694FF00005C943890715D4C168DC
:10105000C943890711D4E91E016101202077206866
:1010600080698007204602D0FFF7DCFF04E000F033
:10107000BDF8204600F060F9257720680169C94372
:10108000490717D4C168C943490713D46FF0040155
:101090000161022020772068806910F4407F20469B
:1010A00002D0FFF7BFFF04E000F0A0F8204600F0F8
:1010B00043F9257720680169C943090716D4C16837
:1010C000C943090712D46FF0080101610420207799
:1010D0002068C0698007204602D0FFF7A3FF04E024
:1010E00000F084F8204600F027F925772068016990
:1010F000C943C90617D4C168C943C90613D46FF0E0
:1011000010010161082020772068C06910F4407F39
:10111000204602D0FFF786FF04E000F067F8204683
:1011200000F00AF9257720680169C943C90708D189
:10113000C168C943C90704D1891E0161204600F076
:101140004BF920680169C943090609D4C168C9433C
:10115000090605D46FF0800101612046FFF74CFEBF
:1011600020680169C943490609D4C168C9434906D1
:1011700005D46FF040010161204600F02EF920688F
:101180000169C94389060BD4C168C943890607D4DC
:101190006FF0200101612046BDE87040FFF72DBED1
:1011A00070BD000000B585B0002100910191029151
:1011B00003910068B0F1804F12D10A48816941F073
:1011C000040181618069694600F0040004900120F7
:1011D000009002200190032003900348FFF706FAD5
:1011E00005B000BD0010024000080140704770B516
:1011F000044690F83C0000260D4601280FD001203F
:1012000084F83C006AB1042A1DD0082A2FD00C2A89
:101210003FD00126002084F83C00304670BD0220FB
:1012200070BD206800F0A6FB2068816941F00801CC
:1012300081612068816921F00401816120688169F0
:101240002A69114311E0206800F0BCFB2068816925
:1012500041F4006181612068816921F480618161CC
:10126000206881692A6941EA02218161D2E7206808
:1012700000F0D4FB2068C16941F00801C161206819
:10128000C16921F00401C1612068C1692A69114363
:1012900011E0206800F0EEFB2068C16941F40061B4
:1012A000C1612068C16921F48061C1612068C169A0
:1012B0002A6941EA0221C161ACE710B5040003D0FC
:1012C00094F83D0010B107E0012010BD002084F823
:1012D0003C00204600F01EF8022084F83D00211D4D
:1012E000206800F003FB012084F8460084F83E00EB
:1012F00084F83F0084F8400084F8410084F84200FC
:1013000084F8430084F8440084F8450084F83D00E4
:10131000002010BD08B50068B0F1804F08D1054825
:10132000C16941F00101C161C06900F00100009094
:1013300008BD0000001002407047000010B50446D0
:10134000022249B104290ED0082913D094F8410093
:10135000012816D0012010BD94F83E000128F9D1D3
:1013600084F83E200FE094F83F000128F2D184F881
:101370003F2008E094F840000128EBD184F8402099
:1013800001E084F841200122206800F0E5FA0F49CD
:101390002068884203D1426C42F4004242642068D3
:1013A000884208D0B0F1804F05D00949884202D068
:1013B0000849884204D1816801F00701062903D059
:1013C000016841F001010160002010BD002C0140C6
:1013D00000040040000800407047704770477047A5
:1013E000F8B5016804460868CA684B6910F00F0F29
:1013F0004FF0000559D003F0010602F4907737430F
:1014000065D0C10705D0D10503D5616C41F001015C
:101410006164410705D5D90703D0616C41F0020131
:101420006164810705D5D90703D0616C41F00401DF
:101430006164010707D502F02001314303D0616CDC
:1014400041F008016164616C00293AD0800604D53E
:10145000900602D5204600F05EFB20684069616C72
:10146000C0F38010090700D460B3204600F02CFBC5
:1014700020684069400621D52068143050E8001FDC
:1014800021F0400140E80012002AF5D1E06BA8B13C
:101490006D494163E06BFFF74BF8002811D0E06B1A
:1014A000416B01B0BDE8F040084783060FD59306B5
:1014B0000DD52046BDE8F84000F02DBB2046FFF7D3
:1014C0008EFFF8BD2046FFF78AFF6564F8BD266BE6
:1014D0002023012E7CD1C6067AD5D60678D5086899
:1014E0004868009048694FF00206400640D5E16B1D
:1014F000086840680004000CE8D0A28D8242E5D95B
:10150000E085886920282DD020680C3050E8001F25
:1015100021F4807140E80012002AF5D120681430CF
:1015200050E8001F21F0010140E80012002AF5D127
:101530002068143050E8001F21F0400140E80012FC
:10154000002AF5D184F84230256320680C3050E839
:10155000001F21F0100140E80012002AF5D1E06BD5
:10156000FEF7C2FF6663A08DE18D401A81B22AE0CA
:10157000A08DE18D401A81B2E08D0028A6D000290F
:10158000A4D022680C3252E8000F20F4907042E898
:101590000007002FF5D12068143050E8002F22F00A
:1015A000010240E80027002FF5D184F8423025637E
:1015B00020680C3050E8002F22F0100240E8002391
:1015C000002BF5D166632046FFF708FFF8BDFFE763
:1015D00005062BD5150629D594F841002128F5D10B
:1015E000A068B0F5805F01D12069B0B1206A411CCC
:1015F0002162216800784860E08C401E0004000CE5
:10160000E084E3D12068C16821F08001C1602068D6
:10161000C16841F04001C160D8E7206A0088C0F38A
:1016200008004860206A801C2062E5E74006CDD5AE
:101630005006CBD5CA68204622F04002CA6084F822
:10164000413000F08FF8C1E7B91A000870B5040006
:1016500004D094F84100002510B106E0012070BDCF
:1016600084F84050204600F023F8242084F84100FC
:101670002068C16821F40051C160204600F0ACFA36
:101680002068016921F4904101612068416921F0DD
:101690002A0141612068C16841F40051C16065645C
:1016A000202084F8410084F842006563002070BD6A
:1016B00030B585B00024009401940294039400682E
:1016C000184988422CD11848816941F480418161D0
:1016D000816901F480410491816941F004018161D3
:1016E0008069124D00F0040004904FF400700090E7
:1016F000022001900320039069462846FEF776FFFA
:101700002815CDE90004694628460294FEF76EFFCD
:10171000002201212520FFF7BDF82520FFF7ACF8B6
:1017200005B030BD00380140001002400008014003
:10173000704790F84130202B01D00220704779B1DA
:1017400072B101628284C28400214164212180F847
:1017500041100068C16841F08001C16000207047FD
:10176000012070477047FEE710B58AB00024079447
:101770001C2168460894FEF781FD15484FF0804112
:10178000C0E9001442F21071C0E9024104618461B1
:10179000FFF793FD08B172B6FEE7079407A90C485E
:1017A0000894FFF72BFB08B172B6FEE76020CDE985
:1017B000000402940022694605480494FFF717FDCF
:1017C00008B172B6FEE70248FFF7ECFC0AB010BDA4
:1017D0002400002010B58CB024216846FEF74EFD91
:1017E00000241648099414490A94C0E900144FF6DD
:1017F000FF71C0E90241046184610320CDE9000466
:101800000120CDE902040494CDE90540079469461E
:101810000A480894FFF726FB08B172B6FEE7099460
:1018200009A906480A94FFF7E9FA002801D072B620
:10183000FEE70CB010BD0000000400406C0000206A
:10184000FEE7FEE7704770470D484168491C41605C
:10185000B1F5FA7F11D10B49B0F9002040F2647361
:10186000B1F900108A1AC2EB0212D20092FBF3F215
:10187000054B1A70018000214160FEF7ADBF0000EA
:101880000C000020020000200000002010B590B0E5
:1018900028216846FEF7F2FC14210AA8FEF7EEFCA8
:1018A000022000900120049010200024059007944D
:1018B0006846FFF7FDF808B172B6FEE70F20CDE9E4
:1018C0000A040C940D9400210AA80E94FFF714F852
:1018D000002801D072B6FEE710B010BD70470000BE
:1018E0000148FFF7ABBB00006C000020F0B50268B8
:1018F000164B174C174D4FF08047984205D0B84211
:1019000003D0A04201D0A84203D122F070064A6859
:101910003243984205D0B84203D0A04201D0A84239
:1019200003D122F44074CA6822434C6922F0800239
:10193000224302608A68C2620A688262984201D1C8
:101940000969016301214161F0BD0000002C0140E3
:10195000000400400008004010B501F01F03012101
:10196000046A99408C430462016A9A4011430162FF
:1019700010BD000030B5036A026A22F00102026263
:101980004268846924F073050C682C4323F0020537
:101990008B682B430A4DA8420BD123F00805CB6876
:1019A00022F440722B434D6923F0040315438A69E6
:1019B0002A434260846149684163036230BD00008C
:1019C000002C014030B5026A036A23F01003036261
:1019D000436884690D6824F4E64444EA05248D686C
:1019E00022F0200242EA05120B4DA8420ED1CD682A
:1019F00022F0800242EA05124D6923F4406343EA73
:101A000085038D6922F0400243EA850343608461C7
:101A100049688163026230BD002C014030B5036A21
:101A2000026A22F4807202624268C46923F400737D
:101A300024F073050C682C438D6843EA05230C4D94
:101A4000A8420ED1CD6823F4006343EA05234D6913
:101A500022F4405242EA05128D6923F4806342EA7F
:101A600005124260C4614968C163036230BD000071
:101A7000002C014030B5046A026A22F480520262EE
:101A80004268C3690D6823F4E64343EA05238D6881
:101A900024F4005444EA0534064DA84204D14D69AB
:101AA00022F4804242EA85124260C36149680164BF
:101AB000046230BD002C014010B5406A0021C18590
:101AC000C184FFF78CFC10BD01680C3151E8002F78
:101AD00022F4907241E80023002BF5D10168143103
:101AE00051E8002F22F0010241E80023002BF5D13C
:101AF000016B012909D101680C3151E8002F22F056
:101B0000100241E80023002BF5D1202180F842107B
:101B100000210163704708B590F84210222901D0D6
:101B2000022008BD82684FF480539A4201D10169B6
:101B300021B1816A9A421BD04AB10AE00268816AE7
:101B40005268C2F308020A80816A891C08E00269AF
:101B500072B10268526802F07F020A70816A491C01
:101B60008162C18D491E0904090CC18503D01BE0A7
:101B700002685268F1E70168CA6822F02002CA6070
:101B80000168CA6822F48072CA6001684A6922F05A
:101B900001024A61202180F8421000214163026B5A
:101BA000012A03D0FFF7C4FD002008BD01630168CE
:101BB0000C3151E8002F22F0100241E80023002BE5
:101BC000F5D101680A68D20602D50A684968009111
:101BD000818DFFF703FCE7E770B5044600680169F3
:101BE000E26821F44051114301612169A068084372
:101BF000616908432168CA6841F20C639A43024351
:101C0000CA6020684169A26921F4407111434161B1
:101C10001E492068884202D1FEF714FF01E0FEF75A
:101C200001FF00EBC00101EB00126068642180003D
:101C3000B2FBF0F3B3FBF1F36FF018067343B2FBA2
:101C4000F0F5B2FBF0F605EB8305322303EB051547
:101C5000B5FBF1F5B6FBF1F605F0F00505EB061561
:101C6000B2FBF0F6B2FBF0F0B0FBF1F06FF018024F
:101C7000504306EB800003EB0010B0FBF1F021684D
:101C800000F00F002844886070BD0000003801405B
:101C90000148FFF7A5BB0000B4000020FEE70907DC
:101CA000090E002804DB00F1E02080F800147047E2
:101CB00000F00F0000F1E02080F8141D70472DE9BE
:101CC000F0414F1E00EBC7010446D1E90001154663
:101CD0001E4637F006020DD02A46334600F0C4FDFA
:101CE0007F1E04EBC703D3E9002300F013FB37F09A
:101CF0000602F1D1022F25D0042F13D0062F18BFD2
:101D0000BDE8F0812A46334600F0AEFDD4E90A234F
:101D100000F000FB2A46334600F0A6FDD4E9082374
:101D200000F0F8FA2A46334600F09EFDD4E9062377
:101D300000F0F0FA2A46334600F096FDD4E9042379
:101D400000F0E8FA2A46334600F08EFDD4E902237B
:101D500000F0E0FA2A46334600F086FDD4E900237D
:101D6000BDE8F04100F0D6BA002213461046014902
:101D700000F08CBB0000F03F012200F09BBF00226E
:101D800013461046114600F081BB10B538B100F083
:101D900057FD00F0B5F900F00DFD401C10BD01200D
:101DA00010BD00002DE9F04DC84A002490B09142CA
:101DB00005DA21F00043934201D805D120B110B0DB
:101DC000BDE8F04DFFF7D8BFB1F5801F1BDA53EA2D
:101DD000000209D0002911DA0120FEF7D0FA10B074
:101DE000BDE8F04DFFF7CBBF0220FEF7C8FAFFF7C2
:101DF000BBFF10B081F00041BDE8F08D6FF03504FD
:101E0000362200F057FF04EB2152C1F31308B0490A
:101E1000A2F2FF33414401F4801282F07F6103EBB0
:101E2000225281F04051009241EA08010022A94B60
:101E300000F024FE044608F10200A74EC0F3130090
:101E40000D467E44032867D2D6E90023204600F0E1
:101E500075FC1ED10098002802BFD6E9000110B021
:101E6000BDE8F08D00F0D5FC07460C469B4A9C4B24
:101E700000F0FAFC06460D469A4A9B4B384621462E
:101E800000F0F2FC10B032462B46BDE8F04D00F0F9
:101E900041BA4FF05532954B2046294600F0E4FCFC
:101EA0000022934B00F0DEFD06460F4622462B46ED
:101EB0001046194600F0D8FC32463B4600F0D4FCF0
:101EC000064600980F46F0B100F0A3FC80468A4613
:101ED000824A834B00F0C8FC32463B4600F0C2FD0C
:101EE00022462B4600F0CAFD05460C467D4A7E4B35
:101EF0004046514600F0B8FC10B02A462346BDE8E3
:101F0000F04D00F0BBBD0B4610B0324620462946CE
:101F1000BDE8F04D00F0B2BD00224FF080432046F6
:101F200000F0F8F902460B462046294600F0AEFACA
:101F300006460F46009800F06CFCCDE904013246DD
:101F40003B461046394600F08FFC0C9069480C9ACD
:101F50004044019009910B46104600F085FC8246F2
:101F6000024665488B46C8F151080B4608F5D7284C
:101F700003217844FFF7A3FE52465B4600F074FC51
:101F80000A905E480D9152465B4604217844FFF763
:101F900096FE099B0C9A00F067FC844601980D9B05
:101FA00040EA080860460A9A00F0B4F983460891AE
:101FB000B8F1000F4EDD4FF0FF322046294600F009
:101FC00079FE22462B4600F04FFC804600988A4658
:101FD00060B3DDE90401414A414B00F045FC099141
:101FE00000905A4640465146089B00F093F932460D
:101FF0003B4600F039FC099B009A00F08BF9424601
:10200000534600F02FFD22462B4600F037FD0446D4
:102010000D46DDE90401334A334B00F025FC10B0D6
:1020200022462B46BDE8F04D00F028BD5A464046FA
:10203000089B00F06FF932463B4600F015FC424623
:10204000534600F00FFD10B022462B46BDE8F04D80
:1020500000F008BD009840B3DDE904011F4A204BA1
:1020600000F002FC80468A465A4620462946089BD4
:1020700000F004FD32463B4600F0F6FB4246534674
:1020800000F0FCFC22462B4600F0F8FC04460D460E
:10209000DDE90401134A144B00F0E6FB10B02246C0
:1020A0002B46BDE8F04D00F0E9BC0B465A462046F1
:1020B000294600F0E3FC32463B4600F0D5FB10B069
:1020C00022462B46BDE8F04D00F0CCBC0000F07F6E
:1020D000645F09000000F03F620F0000763C793534
:1020E000EF39EA3D0000E0FE422EE63F5555D53F70
:1020F0000000E03F86EBF9FFFA0D0000F80D00004C
:102100002DE9F041044630480025814205DA21F0EE
:102110000042824201D805D124B12046BDE8F041F9
:10212000FFF72ABEB1F5801F1BDA52EA040008D07F
:1021300000290FDA0120FEF722F9BDE8F041FFF790
:102140001EBE0220FEF71BF9FFF70EFE81F00041D4
:10215000BDE8F0816FF035053622204600F0AAFD7B
:10216000044605EB2150A0F2FF32D00F40F2FF33BE
:102170001B1A0D4663F31F55104400F04AFB064638
:102180000F4629462046FFF70DFE104A104B00F07F
:102190006BFB04460D460F4A0F4B3046394600F0A4
:1021A00063FB22462B4600F0B5F805460C460B4A69
:1021B0000B4B3046394600F057FB2A462346BDE814
:1021C000F04100F0A7B800000000F07F0EE52615F2
:1021D0007BCBDB3F362BF111F3FE593D00609F5066
:1021E0001344D33F08B5FEF7FFFAFFF74FFB28482B
:1021F000816941F020018161816901F02001009134
:10220000816941F004018161806900F0040000905F
:10221000FFF7AAFAFFF7DEFA1F481E4908220160FD
:102220004FF4E131416000218160C160C0E90412D6
:102230008161C161FFF70AFA08B172B6FEE716487C
:1022400000214838FEF792FE134804214838FEF773
:102250008DFE114800219038FFF770F80E4E0024D3
:102260000E4D903E42F210774FF47A783068476313
:102270004046FEF7A9F9287800F012F80422064833
:10228000A968FFF756FA641C6D2CEFDBFEE700002F
:102290000010024000380140B4000020000000207F
:1022A0002DE9FF4117A2064607CA8DE80700304610
:1022B000FFF76BFD0446002003AD6B460A210BE0DF
:1022C000B6FBF1F201FB1262B6FBF1F6271A2F44BE
:1022D0009A5C07F8012C401CA042F1DB0C4E002058
:1022E0002855B068FDF7A3FF601CFDF771FF01469C
:1022F000B060002002E02A5C0A54401CA042FADDD3
:10230000BDE8FF813031323334353637383900009B
:102310000000002010B591EA030F48BF83F000438E
:1023200000F1B483841A71EB030C05D2121943EB4C
:102330000C03001B61EB0C01DFF824E14FEA1154A0
:10234000A4EB135C1EEA430F18BF9EEA445F73D0F0
:1023500023EA0E03DCF1200E21EA045143F480133A
:1023600032D322FA0CFE10EB0E0023FA0CFE41EBE6
:102370000E01CCF1200E03FA0EFE10EB0E0051F10F
:102380000001B1F5801FCCF1200E32D201EB0451D7
:1023900012FA0EF2BDE8104058BF7047401C38BF1B
:1023A0005FEA420218BF7047002814BF20F0010006
:1023B00041F100014FEA410313F5001F38BF704798
:1023C000A1F1C04100F048BB012A43EB0302ACF18C
:1023D000200CDCF11F0E32BF4FF0000E23FA0CF37D
:1023E00010EB030041EB0451B4EB115FD0D0A1EB33
:1023F000045101F5801149085FEA300001EB0451F6
:102400000ED350F1000038BF12FA0EFE08D1BDE81D
:102410001040C9E7401C38BF5FEA4202CAD1C3E797
:10242000BDE810404FEA410313F5001F38BF704765
:10243000A1F1C04100F010BB9EEA445F08D011EA50
:102440005E0FBDE8104004BF01F00041002070475E
:10245000BDE8104070B500F0B1FA00BF64FBBE3EAD
:102460000000E0FF02494FF0000000F0F1BB00BFA8
:102470000000F87F491058BFC1F140415B1058BFC0
:10248000C3F140438B42EFF3008070472DE9C04118
:1024900030B4DFF8A0C23CEA111418BF3CEA1314B0
:1024A00000F0EC8081EA03051CEA111444EAD574BB
:1024B00018BF1CEA131500F0C780A4EB05044FF009
:1024C000004545EAC12145EAC32341EA505143EAA8
:1024D000525304F17F74994204F500344FEAC0204E
:1024E0004FEAC22208BF904200F09C804FEA136579
:1024F0000FF24016765D4FEA134506FB05F7C7F16C
:10250000807706FB07F74FEAD737A7FB03687642C9
:10251000C8F58038A7FB06CE38BFA8F1010807FB35
:1025200008E64FF0000EA6FB028CE6FB03CEDCF1C2
:10253000000CCEF1004E38BFAEF1010EA6FB0C58D8
:102540004FF000074FF00005E6FB0E87A1FB08C621
:10255000A0FB07CE16EB0E0645F10005E1FB076573
:1025600015F1E04E7EBFA4F580345FEA46066D416A
:1025700016F1800745F100054FEA17274FEA066676
:1025800047EA0567A6F1DE46B6F1805F4FEA1525FA
:102590001FD9384624F0010C05EBC471BCF1FE6F65
:1025A00001EB0C1102D8F0BCBDE8008124425CBFF5
:1025B00001F5801E9EEAC47F02D4F0BCBDE8008114
:1025C000244238D4F0BCA1F1C041BDE8004100F084
:1025D00043BA4FEAD22242EA43524FEAD323A7FB3F
:1025E00002864FEAD02040EA415007FB03661EEA0C
:1025F0000E0F4FEAD12105FB026658BFA6EB00562D
:10260000B6EB00564FEA520E4EEAC37E18EB0E0EA2
:1026100056EB530EBDD518EB02085E417F1C55F1F9
:102620000005B6E74FF480154FF000074FF00006A5
:102630004FF00008ADE7F0BC4FF0000001F1C041E1
:1026400001F00041BDE8008111EA0C1F0CEA1315EE
:1026500000D00CE013EA0C1F00F025804FF00000C2
:10266000F0BC81EA030101F00041BDE80081F0BC4B
:10267000BDE8004181EA030100F0EEB9F0BCBDE81D
:10268000004170B500F09AF9097EFC3E00F007B8F1
:1026900081EA03014FF0000001F00041704781EA38
:1026A000030100F0D9B9F0BCBDE800414FF00000D3
:1026B00021497047FFFDFBF9F7F5F4F2F0EEEDEB81
:1026C000E9E8E6E4E3E1E0DEDDDBDAD8D7D5D4D330
:1026D000D1D0CFCDCCCBCAC8C7C6C5C4C2C1C0BF7C
:1026E000BEBDBCBBBAB9B8B7B6B5B4B3B2B1B0AF82
:1026F000AEADACABAAA9A8A8A7A6A5A4A3A3A2A166
:10270000A09F9F9E9D9C9C9B9A9999989797969520
:1027100095949393929191908F8F8E8E8D8C8C8BBC
:102720008B8A898988888787868585848483838244
:10273000828181800000FF070000F87F51EA030CCE
:1027400017D41CF5801F58BFBCF5801F00F1068010
:10275000994218BF704708BF9042704707D711F5DC
:10276000801F58BF13F5801F19D4994270478942C2
:1027700070471CF5801F08D5BCF5801FF7D58B422C
:1027800018BF704708BF824270474FF4001C1CEB13
:10279000410F38BF1CEB430F01D28B42704770B51D
:1027A00000F00CF9922449004FF000514FF0805393
:1027B000FFF760BE4FEA41034FEA5353A3F580632E
:1027C000D3F11E03C8BFD3F1210C0CDD4FF0004242
:1027D00042EAC12242EA505232FA03FC8CEAE17C1E
:1027E000ACEBE1707047102BC4BF0020704703F5BD
:1027F000787CBCF1FF3F04D06FF0004282EA2100F8
:10280000704770B500F0DAF84992248000207047D4
:10281000F2E710F0004248BF4042B0FA80F310FAED
:1028200003F10AD0C3F11D0303F580634FEA415061
:1028300002EB035202EBD12170474FF000007047CA
:10284000B0FA80F310FA03F10AD0C3F11D0303F5C7
:1028500080634FEA41504FEA035202EBD1217047A7
:102860004FF0000070470000DFF848C170B51CEA67
:10287000111E1EBF1CEA13159EEA0C0F95EA0C0FE1
:1028800000F06F8081EA030423EA4C134EEAD47E01
:1028900021EA4C1141F4801143F48013AE44A1FBB2
:1028A000024CA0FB0365AEF17F7E361955EB0C059B
:1028B000A1FB034C4CF10003A0FB021C16EB0C0621
:1028C000654153F10003094218BF46F0010613F4B5
:1028D000007F0BD14FEA03314FEA0530340341EA60
:1028E000155140EA16506FF003020AE04FEAC32187
:1028F0004FEAC520F40241EA555140EA56506FF0C4
:10290000020202EB2E4201EB025585EACE710AD09B
:102910005FEA440C18BF24F0004450F1000041F17C
:10292000000120EAD47040F2FE7C624500D270BD06
:10293000A84214BF4FF080444FF04044002E08BF1F
:102940000024BEF1806FA8BFA1F1C041BDE8704076
:1029500080F282804FF0000001F1C04101F000419F
:1029600070479EEA0C0F0CEA131518BF95EA0C0F7E
:1029700006D04FF0000081EA030E0EF0004170BD5A
:1029800000F01CF88900013E00F007B800F009B81B
:102990004FEA430C5FEA5C5C08D081EA030100F077
:1029A0005BB84FEA410C5FEA5C5CF6D14FF0000087
:1029B000014970470000FF070000F87F0EF1020E8A
:1029C0002EF0030E5EF8046B364205D4012A43EB69
:1029D000030515F5001F12D8012841EB010C1CF569
:1029E000001F0CD80ED14FEAD17C15F5001F0CEB5F
:1029F0004C0C0CF1020C08BF4CEBD37C04E04FF004
:102A0000080C01E04FEAD37C0CEB4C0526FA05F6E6
:102A100006F00706B6F1040C06D20EEB860CBDE8F4
:102A200070404CF0010C6047DFE80CF0090B02022B
:102A30004FF000414FF00000A1F5002170BD194694
:102A40001046012851EB010418BFD4F5001484BFCF
:102A5000002001F0004170BD0808A0F500114FEA08
:102A60003101704791EA030F10B581F000413FF545
:102A700059AC83F0004300F009B8000010B591EAAA
:102A8000030F48BF83F000433FF54CAC841A71EB51
:102A9000030C07D212198CF0004C43EB0C03001B03
:102AA00061EB0C01DFF8A4E14FEA1154A4EB135CD5
:102AB0001EEA430F18BF9EEA445F00F0B08023EA8D
:102AC0006E03524221EA0451C3EB6E0338BF5B1E12
:102AD000DCF1200E25D322FA0CFE10EB0E0043FA97
:102AE0000CFE41EB0E01CCF1200E03FA0EFE10EBB2
:102AF0000E0051F10001CCF1200E29D412FA0EF291
:102B000001EB0451BDE8104058BF7047401C1CBF8A
:102B1000B2F1004F704700280CBF491C20F00100A3
:102B2000704712EB020E43EB030218BF4FF0010E89
:102B30004EEA4202ACF1200CDCF11E0E54D943FAED
:102B40000CFE10EB0E0051F1FF31CCF11E0ED5D56D
:102B50000EF1010E12FA0EFE404141EB010101EBB4
:102B6000445C5FEA5C5C10D910EBDE7001EB045151
:102B700038BFBEF1004FBDE8104018BF70470028B5
:102B80000CBF491C20F00100704730D24FEAD42C12
:102B900011F5001124F400641BD0B1FA81F20B3A54
:102BA000A41AA41ED2F12003914030FA03F3194372
:102BB000904001EBCC71002C01EB0451BDE81040BA
:102BC000A8BF704701F1C0414FF0000001F0004183
:102BD0007047B0FA80F310FA03F100D110BDE41A87
:102BE000173C4805C90AE4E701EB045110BD491040
:102BF00001EB0451BDE810404FEA300002E04FF015
:102C0000000170474A0008BF0042F8D0B2F5001F2B
:102C100028BF704701F000414FF0000070479EEA66
:102C2000445F07D011EA5E0FBDE8104004BF0021E9
:102C300000207047BDE8104070B5FFF7BFFE00BF31
:102C400040DFF63E83F00041104670470000E0FF91
:102C50000CF00F03092B08BF082000F059800A2B45
:102C60000BD0082B18BF704708BF1CF0400F0AD0CC
:102C70004FF000004FF0000170471CF0400F18BFEC
:102C80004FF0004070471CF0100F08D020F0704348
:102C900000F07F4242EAD3014FEA4370704700F0F0
:102CA000604021F07F4242EA000201F07F4040EAAA
:102CB000727070474FF0FF0C4CF4E06C1CEA11533B
:102CC0001CBF9CEA030C9445C2BFDA4201EB0251DF
:102CD0007047002B0DD0BCF1000F0FD0002A01F07F
:102CE0000041A4BF41F0E04141F07F614FF000009E
:102CF000704701F000414FF00000704750EA013387
:102D00004FF09B0C18BF4CF0806C7FF4ABAB70475E
:102D10001CF4801F11D01CF4E02F03D06FEACC31DB
:102D2000490070474FF04050EFF3008222F07042AC
:102D300042EA000282F3008870474FF000007047BB
:102D4000010202030405060708090A0B0C0D0E0F09
:102D5000101000000000000000000102030406073C
:102D60000809000000000102030400000000000048
:102D700004FA97999999D93FAF788E1DC571CC3FC8
:102D80009FC678D0099AC33F935555555555E53F91
:102D9000599322942449D23FDE03CB966446C73F21
:102DA00044523EDF12F1C23F00000000000000006C
:102DB000D02D000800000020240000002801000899
:102DC000F42D0008240000203C0700004401000806
:102DD00000000000000000000000000000000000F3
:102DE00000000000010000001000000000000000D2
:042DF0000024F400C7
:04000005080000ED02
:00000001FF
